:100000000C9462000C948A000C948A000C948A0070
:100010000C948A000C948A000C948A000C948A0038
:100020000C948A000C948A000C948A000C948A0028
:100030000C948A000C948A000C948A000C948A0018
:100040000C94CD020C948A000C948A000C948A00C3
:100050000C948A000C948A000C948A000C948A00F8
:100060000C948A000C948A000000000024002700F1
:100070002A0000000000250028002B0000000000DE
:1000800023002600290004040404040404040202DA
:100090000202020203030303030301020408102007
:1000A0004080010204081020010204081020000012
:1000B0000008000201000003040700000000000027
:1000C00000002D0411241FBECFEFD8E0DEBFCDBF4E
:1000D00011E0A0E0B1E0E6EAF8E002C005900D9280
:1000E000AE3AB107D9F721E0AEEAB1E001C01D9206
:1000F000A53DB207E1F710E0C2E6D0E004C02197C9
:10010000FE010E944B04C136D107C9F70E941703B4
:100110000C9451040C940000AF92BF92CF92DF92E6
:10012000EF92FF920F931F93CF93DF936C017B01AC
:100130008B01040F151FEB015E01AE18BF08C0173D
:10014000D10759F06991D601ED91FC910190F081B0
:10015000E02DC6010995892B79F7C501DF91CF9173
:100160001F910F91FF90EF90DF90CF90BF90AF90D5
:100170000895833081F028F4813099F08230A9F01D
:1001800008958730A9F08830C9F08430B1F48091A7
:1001900080008F7D03C0809180008F7780938000E6
:1001A000089584B58F7784BD089584B58F7DFBCF86
:1001B0008091B0008F778093B00008958091B00057
:1001C0008F7DF9CF1F93CF93DF93282F30E0F90174
:1001D000E255FF4F8491F901E656FF4FD491F901A2
:1001E000EA57FF4FC491CC23A9F0162F81110E942A
:1001F000B900EC2FF0E0EE0FFF1FEE58FF4FA59176
:10020000B4918FB7F894EC91111108C0D095DE230A
:10021000DC938FBFDF91CF911F910895DE2BF8CF34
:10022000CF93DF9390E0FC01E656FF4F24918A576D
:100230009F4FFC0184918823D1F090E0880F991F93
:10024000FC01E859FF4FA591B491FC01EE58FF4F16
:10025000C591D49161110EC09FB7F8948C91E22F93
:10026000E0958E238C932881E223E8839FBFDF9162
:10027000CF9108958FB7F894EC91E22BEC938FBF58
:10028000F6CF3FB7F8948091B3019091B401A0915B
:10029000B501B091B60126B5A89B05C02F3F19F056
:1002A0000196A11DB11D3FBFBA2FA92F982F8827F6
:1002B000BC01CD01620F711D811D911D42E0660FD1
:1002C000771F881F991F4A95D1F70895089590E0E8
:1002D00080E00895FC0101900020E9F73197AF011B
:1002E000481B590BBC018DEB91E00C948C00CF9313
:1002F000DF93EC0160E08E810E94E20061E08E817C
:100300000E94E20060E08E810E94E2008BE891E0B2
:100310000197F1F7DF91CF910895CF92DF92EF929D
:10032000FF920F931F93CF93DF936C017C0187E0C3
:10033000E80EF11CD0E0C0E0062F10E0B8010C2E52
:1003400002C0759567950A94E2F76170F701819193
:100350007F010E94E2002196C430D10579F7C601E1
:10036000DF91CF911F910F91FF90EF90DF90CF9091
:100370000C947701CF92DF92EF92FF920F931F932D
:10038000CF93DF93EC01F62E642F8C810E94E20064
:100390008D818F3F19F060E00E94E2000F2D10E088
:1003A0008F8584FF25C06E0187E0C80ED11CF12C1B
:1003B000E12CB8010E2C02C0759567950A94E2F7FE
:1003C0006170F60181916F010E94E200FFEFEF1A68
:1003D000FF0A88E0E816F10461F7CE01DF91CF91C2
:1003E0001F910F91FF90EF90DF90CF900C947701C9
:1003F000B80184E0759567958A95E1F7CE010E9472
:100400008D016F2DCE01DF91CF911F910F91FF9044
:10041000EF90DF90CF900C948D0140E0682F8DEB32
:1004200091E00C94BA01CF93DF93823029F490913C
:10043000CC0198609093CC018093D0011092D101AF
:1004400080E48093D20180E18093D30180E58093A2
:10045000D40161E08091C1010E9410018091C2012C
:100460008F3F19F061E00E94100161E08091C301AB
:100470000E941001CDEBD1E09E012D5B31408091B7
:10048000CC0184FD0BC084E090E021962817390749
:1004900044F461E08E810E941001EECF88E090E08C
:1004A000F4CF8BE39DE00197F1F760E08091C1010B
:1004B0000E94E20060E08091C3010E94E20080910E
:1004C000C2018F3F19F060E00E94E2008091CC01F0
:1004D00084FD39C063E08DEB91E00E948D01CBE497
:1004E000D6E4CE010197F1F763E08DEB91E00E9435
:1004F0008D012197F1F763E08DEB91E00E948D0172
:1005000083E592E00197F1F762E08DEB91E00E94C4
:100510008D018091CC0180620E940D0284E0809365
:10052000CD018CE00E940D0281E00E940D028BE360
:100530009FE10197F1F782E08093CE0186E0DF91A1
:10054000CF910C940D0280620E940D028BE496E420
:100550000197F1F78091CC0180620E940D0283E542
:1005600092E00197F1F78091CC0180620E940D0228
:10057000D0CF9091D001891710F08FEF890FE82F1D
:10058000F0E0E354FE4F848980680C940D0241E052
:100590000E94BA0181E090E008951F920F920FB679
:1005A0000F9211242F933F938F939F93AF93BF93F9
:1005B0008091AF019091B001A091B101B091B201D1
:1005C0003091AE0123E0230F2D3758F50196A11D80
:1005D000B11D2093AE018093AF019093B001A09321
:1005E000B101B093B2018091B3019091B401A09197
:1005F000B501B091B6010196A11DB11D8093B30163
:100600009093B401A093B501B093B601BF91AF919F
:100610009F918F913F912F910F900FBE0F901F9040
:10062000189526E8230F0296A11DB11DD2CF78940C
:1006300084B5826084BD84B5816084BD85B58260E7
:1006400085BD85B5816085BD80916E008160809398
:100650006E00109281008091810082608093810001
:100660008091810081608093810080918000816011
:10067000809380008091B10084608093B10080916C
:10068000B00081608093B00080917A008460809394
:100690007A0080917A00826080937A0080917A005B
:1006A000816080937A0080917A00806880937A00DC
:1006B0001092C10082E00E94130260E086E00E9476
:1006C000100180E00E94B9028CE091E00E946A0172
:1006D00081E00E94B9028DE191E00E946A0120EA66
:1006E000222E20E0322E3CE8832E30E0932E4BE386
:1006F000A42E4FE1B42E00E010E0C1E0D0E0E4EB26
:10070000F0E08491F101F490F401E490E11012C062
:100710001092BC011092BB018091BB019091BC0171
:100720009093BA018093B9010115110541F30E941C
:100730000000E5CF81110E94B900EE2DF0E0EE0F30
:10074000FF1FE458FF4FA591B4918C91F82201F35B
:10075000D093BC01C093BB018091B9019091BA01C3
:10076000892BD1F68091B7019091B801019685301F
:1007700091050CF03EC09093B8018093B70181E0E1
:100780000E940D02C5010197F1F780E00E94B902B5
:100790008091B7019091B8018230910509F449C068
:1007A0006CF50197D1F10E9441012B013C018CE2D3
:1007B000C82EDD24D394E12CF12C0E944101641950
:1007C000750986099709683E734081059105A8F36C
:1007D000F1E0CF1AD108E108F10828EE420E23E03B
:1007E000521E611C711CC114D104E104F10429F7EB
:1007F00093CFD093B801C093B701C1CF8330910597
:1008000011F1049781F68EE891E00E946A0181E07F
:100810000E94B9028EE991E009C08FE291E00E9446
:100820006A0181E00E94B9028EE391E00E946A01B0
:10083000BACF8BE491E00E946A0181E00E94B90284
:100840008AE591E0F3CF8BE691E00E946A0181E0B6
:100850000E94B9028BE791E0E9CFEDEBF1E0138262
:10086000128284E091E0918380838CE084838FEF17
:1008700085838BE0868385E0878384E0808783E0BF
:10088000818782E0828713861486158616861786EE
:1008900081E00C941302EE0FFF1F0590F491E02D00
:0608A0000994F894FFCF5B
:1008A60000000000C7028C006701660142616E63AA
:1008B600206465205465737420493243004170708A
:1008C6007579657A20707220746573746572005448
:1008D60065737420313A204C4344204F4B004166E7
:1008E60066696368616765204F4B005465737420C1
:1008F600323A20426F75746F6E0042726F6368659C
:1009060020363A20414354495645005465737420B5
:10091600333A204275732049324300526563686555
:1009260072636865207065726970682E2E00546562
:10093600737420343A204D656D6F697265004545C4
:0E09460050524F4D202F2052414D204F4B005C
:00000001FF
