:100000000C9462000C948A000C948A000C948A0070
:100010000C948A000C948A000C948A000C948A0038
:100020000C948A000C948A000C948A000C948A0028
:100030000C948A000C948A000C948A000C948A0018
:100040000C94FF020C948A000C948A000C948A0091
:100050000C948A000C948A000C948A000C948A00F8
:100060000C948A000C948A000000000024002700F1
:100070002A0000000000250028002B0000000000DE
:1000800023002600290004040404040404040202DA
:100090000202020203030303030301020408102007
:1000A0004080010204081020010204081020000012
:1000B0000008000201000003040700000000000027
:1000C0000000790411241FBECFEFD8E0DEBFCDBF02
:1000D00011E0A0E0B1E0EEE3F9E002C005900D927E
:1000E000A638B107D9F721E0A6E8B1E001C01D921A
:1000F000AD3AB207E1F710E0C2E6D0E004C02197C4
:10010000FE010E949704C136D107C9F70E94490336
:100110000C949D040C940000AF92BF92CF92DF929A
:10012000EF92FF920F931F93CF93DF936C017B01AC
:100130008B01040F151FEB015E01AE18BF08C0173D
:10014000D10759F06991D601ED91FC910190F081B0
:10015000E02DC6010995892B79F7C501DF91CF9173
:100160001F910F91FF90EF90DF90CF90BF90AF90D5
:100170000895833081F028F4813099F08230A9F01D
:1001800008958730A9F08830C9F08430B1F48091A7
:1001900080008F7D03C0809180008F7780938000E6
:1001A000089584B58F7784BD089584B58F7DFBCF86
:1001B0008091B0008F778093B00008958091B00057
:1001C0008F7DF9CF1F93CF93DF93282F30E0F90174
:1001D000E255FF4F8491F901E656FF4FD491F901A2
:1001E000EA57FF4FC491CC23A9F0162F81110E942A
:1001F000B900EC2FF0E0EE0FFF1FEE58FF4FA59176
:10020000B4918FB7F894EC91111108C0D095DE230A
:10021000DC938FBFDF91CF911F910895DE2BF8CF34
:10022000CF93DF9390E0FC01E656FF4F24918A576D
:100230009F4FFC0184918823D1F090E0880F991F93
:10024000FC01E859FF4FA591B491FC01EE58FF4F16
:10025000C591D49161110EC09FB7F8948C91E22F93
:10026000E0958E238C932881E223E8839FBFDF9162
:10027000CF9108958FB7F894EC91E22BEC938FBF58
:10028000F6CF3FB7F89480918B0190918C01A091AB
:100290008D01B0918E0126B5A89B05C02F3F19F0A6
:1002A0000196A11DB11D3FBFBA2FA92F982F8827F6
:1002B000BC01CD01620F711D811D911D42E0660FD1
:1002C000771F881F991F4A95D1F708958F929F92A3
:1002D000AF92BF92CF92DF92EF92FF924B015C01FF
:1002E0000E9441016B017C010E9441016C197D0952
:1002F0008E099F09683E734081059105A8F321E0AE
:10030000821A9108A108B10888EEC80E83E0D81EB1
:10031000E11CF11C81149104A104B10429F7FF90A0
:10032000EF90DF90CF90BF90AF909F908F90089507
:10033000089590E080E00895FC0101900020E9F725
:100340003197AF01481B590BBC0185E991E00C9432
:100350008C00CF93DF93EC0160E08E810E94E2007D
:1003600061E08E810E94E20060E08E810E94E200E6
:100370008BE891E00197F1F7DF91CF910895CF924B
:10038000DF92EF92FF920F931F93CF93DF936C0155
:100390007C0187E0E80EF11CD0E0C0E0062F10E001
:1003A000B8010C2E02C0759567950A94E2F761704A
:1003B000F70181917F010E94E2002196C430D105AE
:1003C00079F7C601DF91CF911F910F91FF90EF90C8
:1003D000DF90CF900C94A901CF92DF92EF92FF9221
:1003E0000F931F93CF93DF93EC01F62E642F8C8134
:1003F0000E94E2008D818F3F19F060E00E94E200D0
:100400000F2D10E08F8584FF25C06E0187E0C80E98
:10041000D11CF12CE12CB8010E2C02C0759567950A
:100420000A94E2F76170F60181916F010E94E20087
:10043000FFEFEF1AFF0A88E0E816F10461F7CE013A
:10044000DF91CF911F910F91FF90EF90DF90CF90B0
:100450000C94A901B80184E0759567958A95E1F738
:10046000CE010E94BF016F2DCE01DF91CF911F9170
:100470000F91FF90EF90DF90CF900C94BF0140E080
:10048000682F85E991E00C94EC01CF93DF938230E3
:1004900029F49091A40198609093A4018093A801FD
:1004A0001092A90180E48093AA0180E18093AB01BE
:1004B00080E58093AC0161E0809199010E94100178
:1004C00080919A018F3F19F061E00E94100161E074
:1004D00080919B010E941001C5E9D1E09E01255940
:1004E00031408091A40184FD0BC084E090E021960E
:1004F0002817390744F461E08E810E941001EECF85
:1005000088E090E0F4CF8BE39DE00197F1F760E0A5
:10051000809199010E94E20060E080919B010E941D
:10052000E20080919A018F3F19F060E00E94E200A2
:100530008091A40184FD39C063E085E991E00E94C7
:10054000BF01CBE4D6E4CE010197F1F763E085E982
:1005500091E00E94BF012197F1F763E085E991E006
:100560000E94BF0183E592E00197F1F762E085E91F
:1005700091E00E94BF018091A40180620E943F022D
:1005800084E08093A5018CE00E943F0281E00E94FC
:100590003F028BE39FE10197F1F782E08093A60190
:1005A00086E0DF91CF910C943F0280620E943F026F
:1005B0008BE496E40197F1F78091A40180620E9498
:1005C0003F0283E592E00197F1F78091A4018062F8
:1005D0000E943F02D0CF9091A801891710F08FEFB1
:1005E000890FE82FF0E0EB56FE4F848980680C9469
:1005F0003F0241E00E94EC0181E090E008951F92EB
:100600000F920FB60F9211242F933F938F939F93C6
:10061000AF93BF938091870190918801A091890148
:10062000B0918A013091860123E0230F2D3758F5D0
:100630000196A11DB11D209386018093870190939F
:100640008801A0938901B0938A0180918B019091D8
:100650008C01A0918D01B0918E010196A11DB11D5B
:1006600080938B0190938C01A0938D01B0938E01A8
:10067000BF91AF919F918F913F912F910F900FBE9E
:100680000F901F90189526E8230F0296A11DB11D0B
:10069000D2CF789484B5826084BD84B5816084BDF6
:1006A00085B5826085BD85B5816085BD80916E0010
:1006B000816080936E001092810080918100826041
:1006C000809381008091810081608093810080917E
:1006D00080008160809380008091B100846080936D
:1006E000B1008091B00081608093B00080917A0069
:1006F000846080937A0080917A00826080937A008F
:1007000080917A00816080937A0080917A0080687D
:1007100080937A001092C10082E00E94450260E05E
:1007200086E00E94100180E00E94EB028CE091E0E4
:100730000E949C0181E00E94EB0289E191E00E940D
:100740009C0194EB692E90E0792E20EAE22E20E0C5
:10075000F22E3CE8C32E30E0D32E4BE3842E4FE143
:10076000942E50E0A52E50E0B52E01E010E0F301EC
:100770008491F701C491F601D491D11112C0109265
:100780009401109293018091930190919401909320
:10079000920180939101A114B10449F30E940000D9
:1007A000E6CF81110E94B900ED2FF0E0EE0FFF1FA0
:1007B000E458FF4FA591B4918C91C82301F3109395
:1007C0009401009393018091910190919201892B62
:1007D000D1F680918F01909190010196853091051D
:1007E000F4F49093900180938F0181E00E943F0286
:1007F000C4010197F1F780E00E94EB0280918F0124
:100800009091900182309105E1F174F4019729F102
:1008100068EB7BE080E090E00E946601B4CF10932B
:10082000900100938F01E1CF8330910509F44AC014
:10083000049771F78FE691E00E949C0181E00E948D
:10084000EB028DE791E00E949C018091A501982F19
:1008500091609093A501896011C08BE291E00E94A4
:100860009C0181E00E94EB028AE391E00E949C01DE
:100870008091A5018E7F8093A50188600E943F0230
:10088000C7CF87E491E00E949C0181E00E94EB02C7
:1008900083E591E00E949C018091A5018B7F80936C
:1008A000A50188600E943F0268E873E180E090E063
:1008B0000E9466018091A501982F94609093A501F4
:1008C0008C60DCCF80E691E00E949C0181E00E9478
:1008D000EB02C0E1D0E06FEF85E991E00E94F90200
:1008E0002197C9F760E177E280E090E00E9466011D
:1008F0008FCFE5E9F1E01382128284E091E09183E9
:1009000080838CE084838FEF85838BE0868385E012
:10091000878384E0808783E0818782E082871386F3
:10092000148615861686178681E00C944502EE0F14
:0E093000FF1F0590F491E02D0994F894FFCF7D
:10093E0000000000F9028C009901980142616E637B
:10094E002064652054657374004170707579657A02
:10095E0020706F7572207465737400546573742003
:10096E00313A204C4344204F4B0041666669636820
:10097E00616765204F4B005465737420323A204FE7
:10098E00666600456372616E20657465696E7400FB
:10099E005465737420333A20506C65696E7300543D
:1009AE0065737420343A20426C696E6B0043757225
:0609BE0073657572200054
:00000001FF
